S014000041737369676E6D656E7430342E7372656393
S11300007AC0000095C0000093C0000091C00000B9
S11300108FC000008DC000008BC0000089C00000AC
S113002087C0000085C0000083C0000081C00000BC
S11300307FC000007DC000007BC0000079C00000CC
S113004077C000000BC2000073C0000071C0000044
S11300506FC000006DC000006BC0000069C00000EC
S113006067C0000065C0000063C0000061C00000FC
S11300705FC000000CC200005BC0000059C000005B
S113008057C0000055C0000053C0000051C000001C
S11300904FC000004DC000004BC0000049C000002C
S11300A047C0000045C0000049C1000041C0000035
S11300B03FC000003DC000003BC0000039C000004C
S11300C037C0000035C0000033C0000031C000005C
S11300D02FC000002DC000002BC0000029C000006C
S11300E027C00000A200A400A600A800AA00AC003B
S11300F0AE00B000B20011241FBECFEFD1E2DEBFCC
S1130100CDBF12E0A0E0B2E0E4E6FBE000E00BBF0C
S113011002C007900D92A630B107D9F722E0A6E0FD
S1130120B2E001C01D92A231B207E1F765D118C552
S113013067CF90E0FC013197E930F105A8F4EE585F
S1130140FF4FD5C380E608958AED089582EF0895A0
S113015086E6089586EB08958EEB089580EE089563
S11301608EEF089586EF08958CEF0895EF92FF9235
S11301700F931F93CF93DF93EC0110920802109218
S11301800902809106029091070261D4109109023C
S1130190812F90E0C4D37C019093070280930602E0
S11301A02097D9F566C0209709F463C0E090060251
S11301B0F0900702E00EF11E9E01ADECBCECA0D362
S11301C09695879596958795969587959C01220F88
S11301D0331F880F991F880F991F880F991F820F4B
S11301E0931F2C2F281B822FA4DFF70180839E01ED
S11301F0ADECBCEC85D3EC01D695C795D695C795E7
S1130200D695C795809109028F5F809309020F5F8D
S11302101F4F0430110539F62CC09E01ADECBCEC27
S11302206FD39695879596958795969587959C0116
S1130230220F331F880F991F880F991F880F991F4A
S1130240820F931FFC2FF81B8F2F73DFF70180831E
S11302509E01ADECBCEC54D3EC01D695C795D69574
S1130260C795D695C7951F5F1093090201E010E06A
S11302709ACFDF91CF911F910F91FF90EF90089546
S1130280FF920F931F93CF93DF93F42E042F10E06C
S1130290101611065CF4C0E0D0E020E030E040E24B
S11302A051E4C2D22196C017D107B9F720E030E05B
S11302B040E05FE32ED1F9D1CB0158DFFF2049F0B4
S11302C0E0910602F0910702EF0DF11D80818F5F2E
S11302D08083DF91CF911F910F91FF900895109229
S11302E0A000E1EAF0E010828FE990E09093A90089
S11302F08093A8001092A5001092A40080818460CD
S1130300808380818D7F808380818E7F80838081C4
S113031088608083E2E7F0E08081826080830895D2
S113032084B18E6084B9E7E0F1E0808188608083E5
S11303302B9A8FE080930A01D2CF08951F920F92D7
S11303400FB60F9211240BB60F922F933F938F93F6
S11303509F93EF93FF93F89420E030E0809108029C
S1130360E0910602F0910702E80FF11D808190E010
S1130370022E02C0959587950A94E2F780FF02C089
S11303802A9A01C02A98299A29982F5F3F4F28302A
S1130390310521F7EBE0F1E08081807F80832081CB
S11303A081E090E00090080202C0880F991F0A942F
S11303B0E2F7822B8083E8E0F1E08081886080832B
S11303C08081877F8083809108028F5F80930802F9
S11303D090910902891302C0109208027894FF9147
S11303E0EF919F918F913F912F910F900BBE0F90A2
S11303F00FBE0F901F90189593DF20D07894FFCFF5
S113040010928000E1E8F0E010828FE990E0909390
S11304108900809388001092850010928400808166
S11304208460808380818D7F808380818E7F8083C0
S1130430EFE6F0E08081826080830895ECE7F0E0ED
S1130440808180688083EAE7F0E08081806880832F
S113045080818860808310BAD3CF08951F920F9251
S11304600FB60F9211240BB60F928F93EF93FF9355
S1130470EAE7F0E0808180648083FF91EF918F91BF
S11304800F900BBE0F900FBE0F901F9018951F92E8
S11304900F920FB60F9211240BB60F922F933F9326
S11304A04F935F936F937F938F939F93AF93BF9378
S11304B0EF93FF93609178007091790080E090E071
S11304C025D120E030E04AEF53E422D020E030E0B0
S11304D040E251E482D060930A0270930B0280934D
S11304E00C0290930D0241E0CBDEFF91EF91BF919E
S11304F0AF919F918F917F916F915F914F913F91B8
S11305002F910F900BBE0F900FBE0F901F90189558
S11305105058BB27AA270ED04DC13ED130F043D14D
S113052020F031F49F3F11F41EF433C10EF4E09532
S1130530E7FB29C1E92F4FD180F3BA17620773078C
S11305408407950718F071F49EF567C10EF4E095E1
S11305500B2EBA2FA02D0B01B90190010C01CA0179
S1130560A0011124FF27591B99F0593F50F4503E24
S113057068F11A16F040A22F232F342F4427585F16
S1130580F3CF469537952795A795F0405395C9F72E
S11305907EF41F16BA0B620B730B840BBAF09150E6
S11305A0A1F0FF0FBB1F661F771F881FC2F70EC085
S11305B0BA0F621F731F841F48F487957795679558
S11305C0B795F7959E3F08F0B3CF9395880F08F041
S11305D09927EE0F9795879508950CD0EBC0E3D03B
S11305E040F0DAD030F021F45F3F19F0CCC0511163
S11305F015C1CFC0F0D098F39923C9F35523B1F3B3
S1130600951B550BBB27AA2762177307840738F07D
S11306109F5F5F4F220F331F441FAA1FA9F333D0DC
S11306200E2E3AF0E0E830D091505040E695001C90
S1130630CAF729D0FE2F27D0660F771F881FBB1F4C
S1130640261737074807AB07B0E809F0BB0B802D26
S1130650BF01FF2793585F4F2AF09E3F510568F072
S113066092C0DCC05F3FECF3983EDCF3869577954F
S11306706795B795F7959F5FC9F7880F911D969574
S1130680879597F90895E1E0660F771F881FBB1FD0
S1130690621773078407BA0720F0621B730B840B7D
S11306A0BA0BEE1F88F7E095089504D06894B11151
S11306B0B5C0089598D088F09F5790F0B92F992726
S11306C0B751A0F0D1F0660F771F881F991F1AF059
S11306D0BA95C9F712C0B13081F09FD0B1E0089546
S11306E09CC0672F782F8827B85F39F0B93FCCF3C7
S11306F0869577956795B395D9F73EF4909580954F
S1130700709561957F4F8F4F9F4F0895E89409C06E
S113071097FB3EF490958095709561957F4F8F4F30
S11307209F4F9923A9F0F92F96E9BB279395F69546
S1130730879577956795B795F111F8CFFAF4BB0FC4
S113074011F460FF1BC06F5F7F4F8F4F9F4F16C028
S1130750882311F096E911C0772321F09EE8872FB2
S1130760762F05C0662371F096E8862F70E060E06E
S11307702AF09A95660F771F881FDAF7880F9695E7
S1130780879597F9089597F99F6780E870E060E08E
S113079008959FEF80EC089500240A941616170616
S11307A018060906089500240A941216130614065E
S11307B005060895092E0394000C11F4882352F0C1
S11307C0BB0F40F4BF2B11F460FF04C06F5F7F4F79
S11307D08F4F9F4F089557FD9058440F551F59F060
S11307E05F3F71F04795880F97FB991F61F09F3F1A
S11307F079F087950895121613061406551FF2CF43
S11308004695F1DF08C0161617061806991FF1CF92
S113081086957105610508940895E894BB276627B9
S11308207727CB0197F908950BD0C4CFB5DF28F013
S1130830BADF18F0952309F0A6CFABCF1124EECF81
S1130840CADFA0F3959FD1F3950F50E0551F629F27
S1130850F001729FBB27F00DB11D639FAA27F00D15
S1130860B11DAA1F649F6627B00DA11D661F829F3C
S11308702227B00DA11D621F739FB00DA11D621F21
S1130880839FA00D611D221F749F3327A00D611D3E
S1130890231F849F600D211D822F762F6A2F112420
S11308A09F5750408AF0E1F088234AF0EE0FFF1F73
S11308B0BB1F661F771F881F91505040A9F79E3FAA
S11308C0510570F060CFAACF5F3FECF3983EDCF3A4
S11308D0869577956795B795F795E7959F5FC1F7E7
S11308E0FE2B880F911D9695879597F90895EE0F25
S11308F0FF1F0024001C0BBE0790F691E02D099405
S1130900A29FB001B39FC001A39F700D811D11244C
S1130910911DB29F700D811D1124911D08950F9397
S11309201F93CF93DF938230910510F482E090E01F
S1130930E0911002F091110220E030E0A0E0B0E07C
S1130940309719F140815181028113814817590769
S1130950C8F08417950769F4109731F012960C9338
S1130960129713961C9327C0009310021093110240
S113097022C02115310519F04217530718F49A01C2
S1130980BD01EF01DF01F801DBCF21153105F9F0DD
S1130990281B390B2430310580F48A819B81611531
S11309A0710521F0FB019383828304C090931102AB
S11309B080931002FE01329644C0FE01E20FF31F41
S11309C08193919322503109398328833AC020912D
S11309D00E0230910F02232B41F420910202309138
S11309E0030230930F0220930E02209100023091F3
S11309F001022115310541F42DB73EB7409104029F
S1130A0050910502241B350BE0910E02F0910F0268
S1130A10E217F307A0F42E1B3F0B2817390778F0D1
S1130A20AC014E5F5F4F2417350748F04E0F5F1F30
S1130A3050930F0240930E028193919302C0E0E021
S1130A40F0E0CF01DF91CF911F910F910895CF93E3
S1130A50DF93009709F481C0FC013297138212825C
S1130A60A0911002B0911102109781F4208131817C
S1130A70820F931F20910E0230910F02281739071D
S1130A8051F5F0930F02E0930E0267C0ED0120E0F0
S1130A9030E0CE17DF0740F44A815B819E014115A7
S1130AA05105F1F0EA01F5CFD383C283408151812E
S1130AB0840F951FC817D90759F488819981840F29
S1130AC0951F0296918380838A819B81938382837D
S1130AD02115310529F4F0931102E09310023DC071
S1130AE0E901FB83EA8349915991C40FD51FEC179F
S1130AF0FD0761F480819181840F951F0296E901BD
S1130B0099838883828193819B838A83E0E0F0E0E8
S1130B1012968D919C911397009719F0FD01DC01B9
S1130B20F7CF8D919C9111979D012E5F3F4F820FBE
S1130B30931F20910E0230910F022817390769F490
S1130B40309729F4109211021092100202C01382FD
S1130B501282B0930F02A0930E02DF91CF910895F9
S1070B60F894FFCF33
S1090B6400001202200053
S9030000FC
